{
  "_format": "hh-sol-artifact-1",
  "contractName": "BuildStream",
  "sourceName": "contracts/BrightIDStream.sol",
  "abi": [
    {
      "inputs": [
        {
          "internalType": "string",
          "name": "_name",
          "type": "string"
        },
        {
          "internalType": "string",
          "name": "_symbol",
          "type": "string"
        },
        {
          "internalType": "contract ISuperfluid",
          "name": "host",
          "type": "address"
        },
        {
          "internalType": "contract IConstantFlowAgreementV1",
          "name": "cfa",
          "type": "address"
        },
        {
          "internalType": "contract ISuperToken",
          "name": "acceptedToken",
          "type": "address"
        }
      ],
      "stateMutability": "nonpayable",
      "type": "constructor"
    },
    {
      "anonymous": false,
      "inputs": [
        {
          "indexed": true,
          "internalType": "address",
          "name": "owner",
          "type": "address"
        },
        {
          "indexed": true,
          "internalType": "address",
          "name": "approved",
          "type": "address"
        },
        {
          "indexed": true,
          "internalType": "uint256",
          "name": "tokenId",
          "type": "uint256"
        }
      ],
      "name": "Approval",
      "type": "event"
    },
    {
      "anonymous": false,
      "inputs": [
        {
          "indexed": true,
          "internalType": "address",
          "name": "owner",
          "type": "address"
        },
        {
          "indexed": true,
          "internalType": "address",
          "name": "operator",
          "type": "address"
        },
        {
          "indexed": false,
          "internalType": "bool",
          "name": "approved",
          "type": "bool"
        }
      ],
      "name": "ApprovalForAll",
      "type": "event"
    },
    {
      "anonymous": false,
      "inputs": [
        {
          "indexed": false,
          "internalType": "uint256",
          "name": "tokenId",
          "type": "uint256"
        },
        {
          "indexed": false,
          "internalType": "address",
          "name": "receiver",
          "type": "address"
        },
        {
          "indexed": false,
          "internalType": "int96",
          "name": "flowRate",
          "type": "int96"
        }
      ],
      "name": "NFTIssued",
      "type": "event"
    },
    {
      "anonymous": false,
      "inputs": [
        {
          "indexed": true,
          "internalType": "address",
          "name": "previousOwner",
          "type": "address"
        },
        {
          "indexed": true,
          "internalType": "address",
          "name": "newOwner",
          "type": "address"
        }
      ],
      "name": "OwnershipTransferred",
      "type": "event"
    },
    {
      "anonymous": false,
      "inputs": [
        {
          "indexed": true,
          "internalType": "address",
          "name": "from",
          "type": "address"
        },
        {
          "indexed": true,
          "internalType": "address",
          "name": "to",
          "type": "address"
        },
        {
          "indexed": true,
          "internalType": "uint256",
          "name": "tokenId",
          "type": "uint256"
        }
      ],
      "name": "Transfer",
      "type": "event"
    },
    {
      "anonymous": false,
      "inputs": [
        {
          "indexed": false,
          "internalType": "address",
          "name": "_from",
          "type": "address"
        },
        {
          "indexed": false,
          "internalType": "address",
          "name": "_destAddr",
          "type": "address"
        },
        {
          "indexed": false,
          "internalType": "uint256",
          "name": "_amount",
          "type": "uint256"
        }
      ],
      "name": "TransferSent",
      "type": "event"
    },
    {
      "inputs": [],
      "name": "_acceptedToken",
      "outputs": [
        {
          "internalType": "contract ISuperToken",
          "name": "",
          "type": "address"
        }
      ],
      "stateMutability": "view",
      "type": "function"
    },
    {
      "inputs": [
        {
          "internalType": "address",
          "name": "receiver",
          "type": "address"
        },
        {
          "internalType": "int96",
          "name": "flowRate",
          "type": "int96"
        }
      ],
      "name": "_issueNFT",
      "outputs": [],
      "stateMutability": "nonpayable",
      "type": "function"
    },
    {
      "inputs": [
        {
          "internalType": "address",
          "name": "to",
          "type": "address"
        },
        {
          "internalType": "uint256",
          "name": "tokenId",
          "type": "uint256"
        }
      ],
      "name": "approve",
      "outputs": [],
      "stateMutability": "nonpayable",
      "type": "function"
    },
    {
      "inputs": [
        {
          "internalType": "address",
          "name": "owner",
          "type": "address"
        }
      ],
      "name": "balanceOf",
      "outputs": [
        {
          "internalType": "uint256",
          "name": "",
          "type": "uint256"
        }
      ],
      "stateMutability": "view",
      "type": "function"
    },
    {
      "inputs": [],
      "name": "baseURI",
      "outputs": [
        {
          "internalType": "string",
          "name": "",
          "type": "string"
        }
      ],
      "stateMutability": "view",
      "type": "function"
    },
    {
      "inputs": [
        {
          "internalType": "uint256",
          "name": "tokenId",
          "type": "uint256"
        }
      ],
      "name": "burnNFT",
      "outputs": [],
      "stateMutability": "nonpayable",
      "type": "function"
    },
    {
      "inputs": [
        {
          "internalType": "int96",
          "name": "_flowRate",
          "type": "int96"
        }
      ],
      "name": "changeFlowRate",
      "outputs": [],
      "stateMutability": "nonpayable",
      "type": "function"
    },
    {
      "inputs": [
        {
          "internalType": "uint256",
          "name": "_newmaxSupplyAmount",
          "type": "uint256"
        }
      ],
      "name": "changeMaxSupply",
      "outputs": [],
      "stateMutability": "nonpayable",
      "type": "function"
    },
    {
      "inputs": [
        {
          "internalType": "address",
          "name": "acceptedToken",
          "type": "address"
        }
      ],
      "name": "changeSuperToken",
      "outputs": [],
      "stateMutability": "nonpayable",
      "type": "function"
    },
    {
      "inputs": [
        {
          "internalType": "uint256",
          "name": "",
          "type": "uint256"
        }
      ],
      "name": "flowRates",
      "outputs": [
        {
          "internalType": "int96",
          "name": "",
          "type": "int96"
        }
      ],
      "stateMutability": "view",
      "type": "function"
    },
    {
      "inputs": [
        {
          "internalType": "uint256",
          "name": "tokenId",
          "type": "uint256"
        }
      ],
      "name": "getApproved",
      "outputs": [
        {
          "internalType": "address",
          "name": "",
          "type": "address"
        }
      ],
      "stateMutability": "view",
      "type": "function"
    },
    {
      "inputs": [
        {
          "internalType": "address",
          "name": "owner",
          "type": "address"
        },
        {
          "internalType": "address",
          "name": "operator",
          "type": "address"
        }
      ],
      "name": "isApprovedForAll",
      "outputs": [
        {
          "internalType": "bool",
          "name": "",
          "type": "bool"
        }
      ],
      "stateMutability": "view",
      "type": "function"
    },
    {
      "inputs": [],
      "name": "maxSupply",
      "outputs": [
        {
          "internalType": "uint256",
          "name": "",
          "type": "uint256"
        }
      ],
      "stateMutability": "view",
      "type": "function"
    },
    {
      "inputs": [],
      "name": "mintNFT",
      "outputs": [],
      "stateMutability": "nonpayable",
      "type": "function"
    },
    {
      "inputs": [],
      "name": "name",
      "outputs": [
        {
          "internalType": "string",
          "name": "",
          "type": "string"
        }
      ],
      "stateMutability": "view",
      "type": "function"
    },
    {
      "inputs": [],
      "name": "nftBaseURI",
      "outputs": [
        {
          "internalType": "string",
          "name": "",
          "type": "string"
        }
      ],
      "stateMutability": "view",
      "type": "function"
    },
    {
      "inputs": [],
      "name": "owner",
      "outputs": [
        {
          "internalType": "address",
          "name": "",
          "type": "address"
        }
      ],
      "stateMutability": "view",
      "type": "function"
    },
    {
      "inputs": [
        {
          "internalType": "uint256",
          "name": "tokenId",
          "type": "uint256"
        }
      ],
      "name": "ownerOf",
      "outputs": [
        {
          "internalType": "address",
          "name": "",
          "type": "address"
        }
      ],
      "stateMutability": "view",
      "type": "function"
    },
    {
      "inputs": [
        {
          "internalType": "bool",
          "name": "_state",
          "type": "bool"
        }
      ],
      "name": "pause",
      "outputs": [],
      "stateMutability": "nonpayable",
      "type": "function"
    },
    {
      "inputs": [],
      "name": "paused",
      "outputs": [
        {
          "internalType": "bool",
          "name": "",
          "type": "bool"
        }
      ],
      "stateMutability": "view",
      "type": "function"
    },
    {
      "inputs": [],
      "name": "renounceOwnership",
      "outputs": [],
      "stateMutability": "nonpayable",
      "type": "function"
    },
    {
      "inputs": [
        {
          "internalType": "address",
          "name": "from",
          "type": "address"
        },
        {
          "internalType": "address",
          "name": "to",
          "type": "address"
        },
        {
          "internalType": "uint256",
          "name": "tokenId",
          "type": "uint256"
        }
      ],
      "name": "safeTransferFrom",
      "outputs": [],
      "stateMutability": "nonpayable",
      "type": "function"
    },
    {
      "inputs": [
        {
          "internalType": "address",
          "name": "from",
          "type": "address"
        },
        {
          "internalType": "address",
          "name": "to",
          "type": "address"
        },
        {
          "internalType": "uint256",
          "name": "tokenId",
          "type": "uint256"
        },
        {
          "internalType": "bytes",
          "name": "_data",
          "type": "bytes"
        }
      ],
      "name": "safeTransferFrom",
      "outputs": [],
      "stateMutability": "nonpayable",
      "type": "function"
    },
    {
      "inputs": [
        {
          "internalType": "address",
          "name": "operator",
          "type": "address"
        },
        {
          "internalType": "bool",
          "name": "approved",
          "type": "bool"
        }
      ],
      "name": "setApprovalForAll",
      "outputs": [],
      "stateMutability": "nonpayable",
      "type": "function"
    },
    {
      "inputs": [
        {
          "internalType": "string",
          "name": "_nftBaseURI",
          "type": "string"
        }
      ],
      "name": "setNFTBaseURI",
      "outputs": [],
      "stateMutability": "nonpayable",
      "type": "function"
    },
    {
      "inputs": [
        {
          "internalType": "bytes4",
          "name": "interfaceId",
          "type": "bytes4"
        }
      ],
      "name": "supportsInterface",
      "outputs": [
        {
          "internalType": "bool",
          "name": "",
          "type": "bool"
        }
      ],
      "stateMutability": "view",
      "type": "function"
    },
    {
      "inputs": [],
      "name": "symbol",
      "outputs": [
        {
          "internalType": "string",
          "name": "",
          "type": "string"
        }
      ],
      "stateMutability": "view",
      "type": "function"
    },
    {
      "inputs": [
        {
          "internalType": "uint256",
          "name": "index",
          "type": "uint256"
        }
      ],
      "name": "tokenByIndex",
      "outputs": [
        {
          "internalType": "uint256",
          "name": "",
          "type": "uint256"
        }
      ],
      "stateMutability": "view",
      "type": "function"
    },
    {
      "inputs": [],
      "name": "tokenCounter",
      "outputs": [
        {
          "internalType": "uint256",
          "name": "",
          "type": "uint256"
        }
      ],
      "stateMutability": "view",
      "type": "function"
    },
    {
      "inputs": [],
      "name": "tokenFlowRate",
      "outputs": [
        {
          "internalType": "int96",
          "name": "",
          "type": "int96"
        }
      ],
      "stateMutability": "view",
      "type": "function"
    },
    {
      "inputs": [
        {
          "internalType": "address",
          "name": "owner",
          "type": "address"
        },
        {
          "internalType": "uint256",
          "name": "index",
          "type": "uint256"
        }
      ],
      "name": "tokenOfOwnerByIndex",
      "outputs": [
        {
          "internalType": "uint256",
          "name": "",
          "type": "uint256"
        }
      ],
      "stateMutability": "view",
      "type": "function"
    },
    {
      "inputs": [
        {
          "internalType": "uint256",
          "name": "tokenId",
          "type": "uint256"
        }
      ],
      "name": "tokenURI",
      "outputs": [
        {
          "internalType": "string",
          "name": "",
          "type": "string"
        }
      ],
      "stateMutability": "view",
      "type": "function"
    },
    {
      "inputs": [],
      "name": "totalSupply",
      "outputs": [
        {
          "internalType": "uint256",
          "name": "",
          "type": "uint256"
        }
      ],
      "stateMutability": "view",
      "type": "function"
    },
    {
      "inputs": [
        {
          "internalType": "address",
          "name": "from",
          "type": "address"
        },
        {
          "internalType": "address",
          "name": "to",
          "type": "address"
        },
        {
          "internalType": "uint256",
          "name": "tokenId",
          "type": "uint256"
        }
      ],
      "name": "transferFrom",
      "outputs": [],
      "stateMutability": "nonpayable",
      "type": "function"
    },
    {
      "inputs": [
        {
          "internalType": "address",
          "name": "newOwner",
          "type": "address"
        }
      ],
      "name": "transferOwnership",
      "outputs": [],
      "stateMutability": "nonpayable",
      "type": "function"
    },
    {
      "inputs": [],
      "name": "withdraw",
      "outputs": [],
      "stateMutability": "payable",
      "type": "function"
    },
    {
      "inputs": [
        {
          "internalType": "contract IERC20",
          "name": "token",
          "type": "address"
        }
      ],
      "name": "withdrawToken",
      "outputs": [],
      "stateMutability": "nonpayable",
      "type": "function"
    }
  ],
  "bytecode": "0x600f80546001600160601b0319166503824430f69e179055600a60105560e0604052603c6080818152906200390760a0398051620000469160129160209091019062000489565b506013805460ff191690553480156200005e57600080fd5b506040516200394338038062003943833981810160405260a08110156200008457600080fd5b8101908080516040519392919084640100000000821115620000a557600080fd5b908301906020820185811115620000bb57600080fd5b8251640100000000811182820188101715620000d657600080fd5b82525081516020918201929091019080838360005b8381101562000105578181015183820152602001620000eb565b50505050905090810190601f168015620001335780820380516001836020036101000a031916815260200191505b50604052602001805160405193929190846401000000008211156200015757600080fd5b9083019060208201858111156200016d57600080fd5b82516401000000008111828201881017156200018857600080fd5b82525081516020918201929091019080838360005b83811015620001b75781810151838201526020016200019d565b50505050905090810190601f168015620001e55780820380516001836020036101000a031916815260200191505b5060409081526020820151908201516060909201519093509091508484620002146301ffc9a760e01b620003e7565b81516200022990600690602085019062000489565b5080516200023f90600790602084019062000489565b50620002526380ac58cd60e01b620003e7565b62000264635b5e139f60e01b620003e7565b6200027663780e9d6360e01b620003e7565b5060009050620002856200046c565b600a80546001600160a01b0319166001600160a01b038316908117909155604051919250906000907f8be0079c531659141344cd1fd0a4f28419497f9722a3daafe3b4186f6b6457e0908290a350600b80546001600160a01b038086166001600160a01b03199283161792839055600c8054868316908416179055600d8054858316931692909217909155166200031857fe5b600c546001600160a01b03166200032b57fe5b600d546001600160a01b03166200033e57fe5b60128054604080516020601f60026000196101006001881615020190951694909404938401819004810282018101909252828152620003dc9390929091830182828015620003d05780601f10620003a457610100808354040283529160200191620003d0565b820191906000526020600020905b815481529060010190602001808311620003b257829003601f168201915b50506200047092505050565b505050505062000525565b6001600160e01b0319808216141562000447576040805162461bcd60e51b815260206004820152601c60248201527f4552433136353a20696e76616c696420696e7465726661636520696400000000604482015290519081900360640190fd5b6001600160e01b0319166000908152602081905260409020805460ff19166001179055565b3390565b80516200048590600990602084019062000489565b5050565b828054600181600116156101000203166002900490600052602060002090601f016020900481019282601f10620004cc57805160ff1916838001178555620004fc565b82800160010185558215620004fc579182015b82811115620004fc578251825591602001919060010190620004df565b506200050a9291506200050e565b5090565b5b808211156200050a57600081556001016200050f565b6133d280620005356000396000f3fe60806040526004361061021a5760003560e01c80636352211e1161012357806395d89b41116100ab578063d5abeb011161006f578063d5abeb011461086c578063daa886b114610881578063db8116b714610934578063e985e9c514610949578063f2fde38b146109845761021a565b806395d89b411461070a578063a22cb4651461071f578063b88d4fde1461075a578063c87b56dd1461082d578063d082e381146108575761021a565b8063715018a6116100f2578063715018a61461065757806379bcb8df1461066c57806389476069146106ad5780638da5cb5b146106e0578063933de0ac146106f55761021a565b80636352211e146105b8578063663de5cb146105e25780636c0360eb1461060f57806370a08231146106245761021a565b80632890e0d7116101a6578063404c7cdd11610175578063404c7cdd146104f757806342842e0e146105215780634e5b3c7c146105645780634f6ccce7146105795780635c975abb146105a35761021a565b80632890e0d7146104595780632f745c59146104835780633b82b1aa146104bc5780633ccfd60b146104ef5761021a565b8063095ea7b3116101ed578063095ea7b31461036557806310047c501461039e57806314f710fe146103da57806318160ddd146103ef57806323b872dd146104165761021a565b806301ffc9a71461021f57806302329a291461026757806306fdde0314610295578063081812fc1461031f575b600080fd5b34801561022b57600080fd5b506102536004803603602081101561024257600080fd5b50356001600160e01b0319166109b7565b604080519115158252519081900360200190f35b34801561027357600080fd5b506102936004803603602081101561028a57600080fd5b503515156109d6565b005b3480156102a157600080fd5b506102aa610a4b565b6040805160208082528351818301528351919283929083019185019080838360005b838110156102e45781810151838201526020016102cc565b50505050905090810190601f1680156103115780820380516001836020036101000a031916815260200191505b509250505060405180910390f35b34801561032b57600080fd5b506103496004803603602081101561034257600080fd5b5035610ae1565b604080516001600160a01b039092168252519081900360200190f35b34801561037157600080fd5b506102936004803603604081101561038857600080fd5b506001600160a01b038135169060200135610b43565b3480156103aa57600080fd5b50610293600480360360408110156103c157600080fd5b506001600160a01b038135169060200135600b0b610c1e565b3480156103e657600080fd5b50610293610e19565b3480156103fb57600080fd5b50610404610fa1565b60408051918252519081900360200190f35b34801561042257600080fd5b506102936004803603606081101561043957600080fd5b506001600160a01b03813581169160208101359091169060400135610fb2565b34801561046557600080fd5b506102936004803603602081101561047c57600080fd5b5035611009565b34801561048f57600080fd5b50610404600480360360408110156104a657600080fd5b506001600160a01b038135169060200135611149565b3480156104c857600080fd5b50610293600480360360208110156104df57600080fd5b50356001600160a01b0316611174565b6102936111f8565b34801561050357600080fd5b506102936004803603602081101561051a57600080fd5b50356112b2565b34801561052d57600080fd5b506102936004803603606081101561054457600080fd5b506001600160a01b03813581169160208101359091169060400135611319565b34801561057057600080fd5b50610349611334565b34801561058557600080fd5b506104046004803603602081101561059c57600080fd5b5035611343565b3480156105af57600080fd5b50610253611359565b3480156105c457600080fd5b50610349600480360360208110156105db57600080fd5b5035611362565b3480156105ee57600080fd5b506102936004803603602081101561060557600080fd5b5035600b0b61138a565b34801561061b57600080fd5b506102aa611413565b34801561063057600080fd5b506104046004803603602081101561064757600080fd5b50356001600160a01b0316611474565b34801561066357600080fd5b506102936114dc565b34801561067857600080fd5b506106966004803603602081101561068f57600080fd5b5035611588565b60408051600b9290920b8252519081900360200190f35b3480156106b957600080fd5b50610293600480360360208110156106d057600080fd5b50356001600160a01b031661159d565b3480156106ec57600080fd5b50610349611749565b34801561070157600080fd5b50610696611758565b34801561071657600080fd5b506102aa611761565b34801561072b57600080fd5b506102936004803603604081101561074257600080fd5b506001600160a01b03813516906020013515156117c2565b34801561076657600080fd5b506102936004803603608081101561077d57600080fd5b6001600160a01b038235811692602081013590911691604082013591908101906080810160608201356401000000008111156107b857600080fd5b8201836020820111156107ca57600080fd5b803590602001918460018302840111640100000000831117156107ec57600080fd5b91908080601f0160208091040260200160405190810160405280939291908181526020018383808284376000920191909152509295506118c7945050505050565b34801561083957600080fd5b506102aa6004803603602081101561085057600080fd5b503561191f565b34801561086357600080fd5b506104046119fe565b34801561087857600080fd5b50610404611a04565b34801561088d57600080fd5b50610293600480360360208110156108a457600080fd5b8101906020810181356401000000008111156108bf57600080fd5b8201836020820111156108d157600080fd5b803590602001918460018302840111640100000000831117156108f357600080fd5b91908080601f016020809104026020016040519081016040528093929190818152602001838380828437600092019190915250929550611a0a945050505050565b34801561094057600080fd5b506102aa611a7f565b34801561095557600080fd5b506102536004803603604081101561096c57600080fd5b506001600160a01b0381358116916020013516611b0d565b34801561099057600080fd5b50610293600480360360208110156109a757600080fd5b50356001600160a01b0316611b3b565b6001600160e01b03191660009081526020819052604090205460ff1690565b6109de611c3e565b6001600160a01b03166109ef611749565b6001600160a01b031614610a38576040805162461bcd60e51b815260206004820181905260248201526000805160206132d3833981519152604482015290519081900360640190fd5b6013805460ff1916911515919091179055565b60068054604080516020601f6002600019610100600188161502019095169490940493840181900481028201810190925282815260609390929091830182828015610ad75780601f10610aac57610100808354040283529160200191610ad7565b820191906000526020600020905b815481529060010190602001808311610aba57829003601f168201915b5050505050905090565b6000610aec82611c42565b610b275760405162461bcd60e51b815260040180806020018281038252602c8152602001806132a7602c913960400191505060405180910390fd5b506000908152600460205260409020546001600160a01b031690565b6000610b4e82611362565b9050806001600160a01b0316836001600160a01b03161415610ba15760405162461bcd60e51b815260040180806020018281038252602181526020018061334b6021913960400191505060405180910390fd5b806001600160a01b0316610bb3611c3e565b6001600160a01b03161480610bd45750610bd481610bcf611c3e565b611b0d565b610c0f5760405162461bcd60e51b81526004018080602001828103825260388152602001806131d86038913960400191505060405180910390fd5b610c198383611c4f565b505050565b610c26611c3e565b6001600160a01b0316610c37611749565b6001600160a01b031614610c80576040805162461bcd60e51b815260206004820181905260248201526000805160206132d3833981519152604482015290519081900360640190fd5b60135460ff1615610cd1576040805162461bcd60e51b81526020600482015260166024820152751d1a194818dbdb9d1c9858dd081a5cc81c185d5cd95960521b604482015290519081900360640190fd5b6001600160a01b038216301415610d28576040805162461bcd60e51b8152602060048201526016602482015275497373756520746f2061206e6577206164647265737360501b604482015290519081900360640190fd5b600081600b0b13610d80576040805162461bcd60e51b815260206004820152601a60248201527f666c6f7752617465206d75737420626520706f73697469766521000000000000604482015290519081900360640190fd5b60118054600101808255600f546000918252600e6020908152604080842080546001600160601b0319166001600160601b03600b95860b860b161790559354808452928490205484519384523391840191909152810b900b8183015290517f6e89a354929848553af9a2898855fe0486bb36807f1512041a8fcf8e19f4a584916060908290030190a1610e1582601154611cbd565b5050565b60135460ff1615610e6a576040805162461bcd60e51b81526020600482015260166024820152751d1a194818dbdb9d1c9858dd081a5cc81c185d5cd95960521b604482015290519081900360640190fd5b33301415610eb8576040805162461bcd60e51b8152602060048201526016602482015275497373756520746f2061206e6577206164647265737360501b604482015290519081900360640190fd5b6010546011541115610f0a576040805162461bcd60e51b81526020600482015260166024820152751b585e08139195081b1a5b5a5d08195e18d95959195960521b604482015290519081900360640190fd5b60118054600101808255600f546000918252600e6020908152604080842080546001600160601b0319166001600160601b03600b95860b860b161790559354808452928490205484519384523391840191909152810b900b8183015290517f6e89a354929848553af9a2898855fe0486bb36807f1512041a8fcf8e19f4a584916060908290030190a1610f9f33601154611cbd565b565b6000610fad6002611cd7565b905090565b610fc3610fbd611c3e565b82611ce2565b610ffe5760405162461bcd60e51b815260040180806020018281038252603181526020018061336c6031913960400191505060405180910390fd5b610c19838383611d86565b611011611c3e565b6001600160a01b0316611022611749565b6001600160a01b03161461106b576040805162461bcd60e51b815260206004820181905260248201526000805160206132d3833981519152604482015290519081900360640190fd5b8061107581611c42565b6110b05760405162461bcd60e51b81526004018080602001828103825260258152602001806130e56025913960400191505060405180910390fd5b60135460ff1615611101576040805162461bcd60e51b81526020600482015260166024820152751d1a194818dbdb9d1c9858dd081a5cc81c185d5cd95960521b604482015290519081900360640190fd5b600061110c83611362565b6000848152600e6020526040902080546001600160601b03198116909155909150600b0b61113984611ed2565b6111438282611f9f565b50505050565b6001600160a01b038216600090815260016020526040812061116b9083612080565b90505b92915050565b61117c611c3e565b6001600160a01b031661118d611749565b6001600160a01b0316146111d6576040805162461bcd60e51b815260206004820181905260248201526000805160206132d3833981519152604482015290519081900360640190fd5b600d80546001600160a01b0319166001600160a01b0392909216919091179055565b611200611c3e565b6001600160a01b0316611211611749565b6001600160a01b03161461125a576040805162461bcd60e51b815260206004820181905260248201526000805160206132d3833981519152604482015290519081900360640190fd5b604051600090339047908381818185875af1925050503d806000811461129c576040519150601f19603f3d011682016040523d82523d6000602084013e6112a1565b606091505b50509050806112af57600080fd5b50565b6112ba611c3e565b6001600160a01b03166112cb611749565b6001600160a01b031614611314576040805162461bcd60e51b815260206004820181905260248201526000805160206132d3833981519152604482015290519081900360640190fd5b601055565b610c19838383604051806020016040528060008152506118c7565b600d546001600160a01b031681565b60008061135160028461208c565b509392505050565b60135460ff1681565b600061116e8260405180606001604052806029815260200161323a60299139600291906120a8565b611392611c3e565b6001600160a01b03166113a3611749565b6001600160a01b0316146113ec576040805162461bcd60e51b815260206004820181905260248201526000805160206132d3833981519152604482015290519081900360640190fd5b600f8054600b9290920b6001600160601b03166001600160601b0319909216919091179055565b60098054604080516020601f6002600019610100600188161502019095169490940493840181900481028201810190925282815260609390929091830182828015610ad75780601f10610aac57610100808354040283529160200191610ad7565b60006001600160a01b0382166114bb5760405162461bcd60e51b815260040180806020018281038252602a815260200180613210602a913960400191505060405180910390fd5b6001600160a01b038216600090815260016020526040902061116e90611cd7565b6114e4611c3e565b6001600160a01b03166114f5611749565b6001600160a01b03161461153e576040805162461bcd60e51b815260206004820181905260248201526000805160206132d3833981519152604482015290519081900360640190fd5b600a546040516000916001600160a01b0316907f8be0079c531659141344cd1fd0a4f28419497f9722a3daafe3b4186f6b6457e0908390a3600a80546001600160a01b0319169055565b600e60205260009081526040902054600b0b81565b6115a5611c3e565b6001600160a01b03166115b6611749565b6001600160a01b0316146115ff576040805162461bcd60e51b815260206004820181905260248201526000805160206132d3833981519152604482015290519081900360640190fd5b806001600160a01b031663a9059cbb33836001600160a01b03166370a08231306040518263ffffffff1660e01b815260040180826001600160a01b0316815260200191505060206040518083038186803b15801561165c57600080fd5b505afa158015611670573d6000803e3d6000fd5b505050506040513d602081101561168657600080fd5b5051604080516001600160e01b031960e086901b1681526001600160a01b03909316600484015260248301919091525160448083019260209291908290030181600087803b1580156116d757600080fd5b505af11580156116eb573d6000803e3d6000fd5b505050506040513d602081101561170157600080fd5b50516112af576040805162461bcd60e51b81526020600482015260126024820152712ab730b13632903a37903a3930b739b332b960711b604482015290519081900360640190fd5b600a546001600160a01b031690565b600f54600b0b81565b60078054604080516020601f6002600019610100600188161502019095169490940493840181900481028201810190925282815260609390929091830182828015610ad75780601f10610aac57610100808354040283529160200191610ad7565b6117ca611c3e565b6001600160a01b0316826001600160a01b03161415611830576040805162461bcd60e51b815260206004820152601960248201527f4552433732313a20617070726f766520746f2063616c6c657200000000000000604482015290519081900360640190fd5b806005600061183d611c3e565b6001600160a01b03908116825260208083019390935260409182016000908120918716808252919093529120805460ff191692151592909217909155611881611c3e565b6001600160a01b03167f17307eab39ab6107e8899845ad3d59bd9653f200f220920489ca2b5937696c318360405180821515815260200191505060405180910390a35050565b6118d86118d2611c3e565b83611ce2565b6119135760405162461bcd60e51b815260040180806020018281038252603181526020018061336c6031913960400191505060405180910390fd5b611143848484846120b5565b606061192a82611c42565b6119655760405162461bcd60e51b815260040180806020018281038252602f81526020018061331c602f913960400191505060405180910390fd5b606061196f611413565b9050600081511161198f57604051806020016040528060008152506119f7565b806040516020018082805190602001908083835b602083106119c25780518252601f1990920191602091820191016119a3565b6001836020036101000a0380198251168184511680821785525050505050509050019150506040516020818303038152906040525b9392505050565b60115481565b60105481565b611a12611c3e565b6001600160a01b0316611a23611749565b6001600160a01b031614611a6c576040805162461bcd60e51b815260206004820181905260248201526000805160206132d3833981519152604482015290519081900360640190fd5b8051610e15906012906020840190612fef565b6012805460408051602060026001851615610100026000190190941693909304601f81018490048402820184019092528181529291830182828015611b055780601f10611ada57610100808354040283529160200191611b05565b820191906000526020600020905b815481529060010190602001808311611ae857829003601f168201915b505050505081565b6001600160a01b03918216600090815260056020908152604080832093909416825291909152205460ff1690565b611b43611c3e565b6001600160a01b0316611b54611749565b6001600160a01b031614611b9d576040805162461bcd60e51b815260206004820181905260248201526000805160206132d3833981519152604482015290519081900360640190fd5b6001600160a01b038116611be25760405162461bcd60e51b815260040180806020018281038252602681526020018061313c6026913960400191505060405180910390fd5b600a546040516001600160a01b038084169216907f8be0079c531659141344cd1fd0a4f28419497f9722a3daafe3b4186f6b6457e090600090a3600a80546001600160a01b0319166001600160a01b0392909216919091179055565b3390565b600061116e600283612107565b600081815260046020526040902080546001600160a01b0319166001600160a01b0384169081179091558190611c8482611362565b6001600160a01b03167f8c5be1e5ebec7d5bd14f71427d1e84f3dd0314c0f7b2291e5b200ac8c7c3b92560405160405180910390a45050565b610e15828260405180602001604052806000815250612113565b600061116e82612165565b6000611ced82611c42565b611d285760405162461bcd60e51b815260040180806020018281038252602c8152602001806131ac602c913960400191505060405180910390fd5b6000611d3383611362565b9050806001600160a01b0316846001600160a01b03161480611d6e5750836001600160a01b0316611d6384610ae1565b6001600160a01b0316145b80611d7e5750611d7e8185611b0d565b949350505050565b826001600160a01b0316611d9982611362565b6001600160a01b031614611dde5760405162461bcd60e51b81526004018080602001828103825260298152602001806132f36029913960400191505060405180910390fd5b6001600160a01b038216611e235760405162461bcd60e51b81526004018080602001828103825260248152602001806131626024913960400191505060405180910390fd5b611e2e838383612169565b611e39600082611c4f565b6001600160a01b0383166000908152600160205260409020611e5b908261226b565b506001600160a01b0382166000908152600160205260409020611e7e9082612277565b50611e8b60028284612283565b5080826001600160a01b0316846001600160a01b03167fddf252ad1be2c89b69c2b068fc378daa952ba7f163c4a11628f55a4df523b3ef60405160405180910390a4505050565b6000611edd82611362565b9050611eeb81600084612169565b611ef6600083611c4f565b6000828152600860205260409020546002600019610100600184161502019091160415611f34576000828152600860205260408120611f349161306d565b6001600160a01b0381166000908152600160205260409020611f56908361226b565b50611f62600283612299565b5060405182906000906001600160a01b038416907fddf252ad1be2c89b69c2b068fc378daa952ba7f163c4a11628f55a4df523b3ef908390a45050565b6001600160a01b038216301415611fb557610e15565b600c54600d5460408051631cd43d1160e31b81526001600160a01b03928316600482015230602482015285831660448201529051600093929092169163e6a1e88891606480820192608092909190829003018186803b15801561201757600080fd5b505afa15801561202b573d6000803e3d6000fd5b505050506040513d608081101561204157600080fd5b50602001519050600b81810b9083900b14156120665761206130846122a5565b610c19565b81600b0b81600b0b1315610c1957610c1983838303612552565b600061116b838361263a565b600080808061209b868661269e565b9097909650945050505050565b6000611d7e848484612719565b6120c0848484611d86565b6120cc848484846127e3565b6111435760405162461bcd60e51b815260040180806020018281038252603281526020018061310a6032913960400191505060405180910390fd5b600061116b838361294b565b61211d8383612963565b61212a60008484846127e3565b610c195760405162461bcd60e51b815260040180806020018281038252603281526020018061310a6032913960400191505060405180910390fd5b5490565b600b5460408051631e51d6a760e11b81526001600160a01b03858116600483015291519190921691633ca3ad4e916024808301926020929190829003018186803b1580156121b657600080fd5b505afa1580156121ca573d6000803e3d6000fd5b505050506040513d60208110156121e057600080fd5b505115806121f657506001600160a01b03821630145b6122315760405162461bcd60e51b81526004018080602001828103825260228152602001806132636022913960400191505060405180910390fd5b6000818152600e602052604090205461224e908490600b0b611f9f565b6000818152600e6020526040902054610c19908390600b0b612a91565b600061116b8383612b43565b600061116b8383612c09565b6000611d7e84846001600160a01b038516612c53565b600061116b8383612cea565b600b54600c54600d5460408051600080825260208201928390526001600160a01b039384166044830181815289861660648501528886166084850152608060a48501908152845160c48601819052988716986339255d5b989790971696635a5999e360e11b9693958c958c959194939260e4860192918190849084905b8381101561233a578181015183820152602001612322565b50505050905090810190601f1680156123675780820380516001836020036101000a031916815260200191505b5060408051601f198184030181529181526020820180516001600160e01b03166001600160e01b03199a8b16178152905160e08c901b90991689526001600160a01b038a1660048a01908152606060248b01908152835160648c01528351939a919950975060448101965060840194509250905080838360005b838110156123f95781810151838201526020016123e1565b50505050905090810190601f1680156124265780820380516001836020036101000a031916815260200191505b508381038252600281526020018061060f60f31b815250602001945050505050600060405180830381600087803b15801561246057600080fd5b505af1158015612474573d6000803e3d6000fd5b505050506040513d6000823e601f3d908101601f19168201604052602081101561249d57600080fd5b81019080805160405193929190846401000000008211156124bd57600080fd5b9083019060208201858111156124d257600080fd5b82516401000000008111828201881017156124ec57600080fd5b82525081516020918201929091019080838360005b83811015612519578181015183820152602001612501565b50505050905090810190601f1680156125465780820380516001836020036101000a031916815260200191505b50604052505050505050565b6001600160a01b03821630148061257057506001600160a01b038216155b1561257a57610e15565b600b54600c54600d546001600160a01b03928316926339255d5b928116916328104d3160e11b911686866000805b506040519080825280601f01601f1916602001820160405280156125d3576020820181803683370190505b5060405160240180856001600160a01b03168152602001846001600160a01b0316815260200183600b0b815260200180602001828103825283818151815260200191508051906020019080838360008381101561233a578181015183820152602001612322565b8154600090821061267c5760405162461bcd60e51b81526004018080602001828103825260228152602001806130c36022913960400191505060405180910390fd5b82600001828154811061268b57fe5b9060005260206000200154905092915050565b8154600090819083106126e25760405162461bcd60e51b81526004018080602001828103825260228152602001806132856022913960400191505060405180910390fd5b60008460000184815481106126f357fe5b906000526020600020906002020190508060000154816001015492509250509250929050565b600082815260018401602052604081205482816127b45760405162461bcd60e51b81526004018080602001828103825283818151815260200191508051906020019080838360005b83811015612779578181015183820152602001612761565b50505050905090810190601f1680156127a65780820380516001836020036101000a031916815260200191505b509250505060405180910390fd5b508460000160018203815481106127c757fe5b9060005260206000209060020201600101549150509392505050565b60006127f7846001600160a01b0316612dbe565b61280357506001611d7e565b6060612911630a85bd0160e11b612818611c3e565b88878760405160240180856001600160a01b03168152602001846001600160a01b0316815260200183815260200180602001828103825283818151815260200191508051906020019080838360005b8381101561287f578181015183820152602001612867565b50505050905090810190601f1680156128ac5780820380516001836020036101000a031916815260200191505b5095505050505050604051602081830303815290604052906001600160e01b0319166020820180516001600160e01b03838183161783525050505060405180606001604052806032815260200161310a603291396001600160a01b0388169190612dc4565b9050600081806020019051602081101561292a57600080fd5b50516001600160e01b031916630a85bd0160e11b1492505050949350505050565b60009081526001919091016020526040902054151590565b6001600160a01b0382166129be576040805162461bcd60e51b815260206004820181905260248201527f4552433732313a206d696e7420746f20746865207a65726f2061646472657373604482015290519081900360640190fd5b6129c781611c42565b15612a19576040805162461bcd60e51b815260206004820152601c60248201527f4552433732313a20746f6b656e20616c7265616479206d696e74656400000000604482015290519081900360640190fd5b612a2560008383612169565b6001600160a01b0382166000908152600160205260409020612a479082612277565b50612a5460028284612283565b5060405181906001600160a01b038416906000907fddf252ad1be2c89b69c2b068fc378daa952ba7f163c4a11628f55a4df523b3ef908290a45050565b600c54600d5460408051631cd43d1160e31b81526001600160a01b03928316600482015230602482015285831660448201529051600093929092169163e6a1e88891606480820192608092909190829003018186803b158015612af357600080fd5b505afa158015612b07573d6000803e3d6000fd5b505050506040513d6080811015612b1d57600080fd5b50602001519050600b81900b612b37576120618383612dd3565b610c1983838301612552565b60008181526001830160205260408120548015612bff5783546000198083019190810190600090879083908110612b7657fe5b9060005260206000200154905080876000018481548110612b9357fe5b600091825260208083209091019290925582815260018981019092526040902090840190558654879080612bc357fe5b6001900381819060005260206000200160009055905586600101600087815260200190815260200160002060009055600194505050505061116e565b600091505061116e565b6000612c15838361294b565b612c4b5750815460018181018455600084815260208082209093018490558454848252828601909352604090209190915561116e565b50600061116e565b600082815260018401602052604081205480612cb85750506040805180820182528381526020808201848152865460018181018955600089815284812095516002909302909501918255915190820155865486845281880190925292909120556119f7565b82856000016001830381548110612ccb57fe5b90600052602060002090600202016001018190555060009150506119f7565b60008181526001830160205260408120548015612bff5783546000198083019190810190600090879083908110612d1d57fe5b9060005260206000209060020201905080876000018481548110612d3d57fe5b600091825260208083208454600290930201918255600193840154918401919091558354825289830190526040902090840190558654879080612d7c57fe5b600082815260208082206002600019909401938402018281556001908101839055929093558881528982019092526040822091909155945061116e9350505050565b3b151590565b6060611d7e8484600085612e2d565b6001600160a01b038216301480612df157506001600160a01b038216155b15612dfb57610e15565b600b54600c54600d546001600160a01b03928316926339255d5b9281169163317e182f60e11b911686866000806125a8565b606082471015612e6e5760405162461bcd60e51b81526004018080602001828103825260268152602001806131866026913960400191505060405180910390fd5b612e7785612dbe565b612ec8576040805162461bcd60e51b815260206004820152601d60248201527f416464726573733a2063616c6c20746f206e6f6e2d636f6e7472616374000000604482015290519081900360640190fd5b60006060866001600160a01b031685876040518082805190602001908083835b60208310612f075780518252601f199092019160209182019101612ee8565b6001836020036101000a03801982511681845116808217855250505050505090500191505060006040518083038185875af1925050503d8060008114612f69576040519150601f19603f3d011682016040523d82523d6000602084013e612f6e565b606091505b5091509150612f7e828286612f89565b979650505050505050565b60608315612f985750816119f7565b825115612fa85782518084602001fd5b60405162461bcd60e51b8152602060048201818152845160248401528451859391928392604401919085019080838360008315612779578181015183820152602001612761565b828054600181600116156101000203166002900490600052602060002090601f016020900481019282601f1061303057805160ff191683800117855561305d565b8280016001018555821561305d579182015b8281111561305d578251825591602001919060010190613042565b506130699291506130ad565b5090565b50805460018160011615610100020316600290046000825580601f1061309357506112af565b601f0160209004906000526020600020908101906112af91905b5b8082111561306957600081556001016130ae56fe456e756d657261626c655365743a20696e646578206f7574206f6620626f756e6473746f6b656e20646f65736e2774206578697374206f7220686173206265656e206275726e744552433732313a207472616e7366657220746f206e6f6e20455243373231526563656976657220696d706c656d656e7465724f776e61626c653a206e6577206f776e657220697320746865207a65726f20616464726573734552433732313a207472616e7366657220746f20746865207a65726f2061646472657373416464726573733a20696e73756666696369656e742062616c616e636520666f722063616c6c4552433732313a206f70657261746f7220717565727920666f72206e6f6e6578697374656e7420746f6b656e4552433732313a20617070726f76652063616c6c6572206973206e6f74206f776e6572206e6f7220617070726f76656420666f7220616c6c4552433732313a2062616c616e636520717565727920666f7220746865207a65726f20616464726573734552433732313a206f776e657220717565727920666f72206e6f6e6578697374656e7420746f6b656e4e65772072656365697665722063616e206e6f742062652061207375706572417070456e756d657261626c654d61703a20696e646578206f7574206f6620626f756e64734552433732313a20617070726f76656420717565727920666f72206e6f6e6578697374656e7420746f6b656e4f776e61626c653a2063616c6c6572206973206e6f7420746865206f776e65724552433732313a207472616e73666572206f6620746f6b656e2074686174206973206e6f74206f776e4552433732314d657461646174613a2055524920717565727920666f72206e6f6e6578697374656e7420746f6b656e4552433732313a20617070726f76616c20746f2063757272656e74206f776e65724552433732313a207472616e736665722063616c6c6572206973206e6f74206f776e6572206e6f7220617070726f766564a264697066735822122012ba7bf52ee4b027a7c8e663e4548fb45c1d0647f7e7e03d5e6b2bc8b3bce73964736f6c63430007000033697066733a2f2f516d4e713831784c32506f37625431386a4532684e5447654b7976694c7168614469423342636a685864344539622f312e6a736f6e",
  "linkReferences": {},
  "deployedLinkReferences": {}
}